{
  "contractName": "SimpleStorage",
  "abi": [
    {
      "constant": false,
      "inputs": [
        {
          "name": "phone",
          "type": "uint256"
        },
        {
          "name": "_name",
          "type": "string"
        },
        {
          "name": "_conf",
          "type": "string"
        },
        {
          "name": "_details",
          "type": "string"
        },
        {
          "name": "_issuedBy",
          "type": "string"
        }
      ],
      "name": "issueCert",
      "outputs": [],
      "payable": false,
      "stateMutability": "nonpayable",
      "type": "function"
    },
    {
      "constant": true,
      "inputs": [
        {
          "name": "_phone",
          "type": "uint256"
        }
      ],
      "name": "verifyCert",
      "outputs": [
        {
          "name": "name",
          "type": "string"
        },
        {
          "name": "conf",
          "type": "string"
        },
        {
          "name": "details",
          "type": "string"
        },
        {
          "name": "issuedBy",
          "type": "string"
        }
      ],
      "payable": false,
      "stateMutability": "view",
      "type": "function"
    },
    {
      "constant": true,
      "inputs": [
        {
          "name": "_phone",
          "type": "uint256"
        }
      ],
      "name": "getAttendeeName",
      "outputs": [
        {
          "name": "name",
          "type": "string"
        }
      ],
      "payable": false,
      "stateMutability": "view",
      "type": "function"
    }
  ],
  "bytecode": "0x608060405234801561001057600080fd5b50610ab2806100206000396000f3fe608060405260043610610057576000357c0100000000000000000000000000000000000000000000000000000000900463ffffffff16806314cce26d1461005c57806366ae0c64146102545780638a71cba2146104eb575b600080fd5b34801561006857600080fd5b506100956004803603602081101561007f57600080fd5b810190808035906020019092919050505061059f565b6040518080602001806020018060200180602001858103855289818151815260200191508051906020019080838360005b838110156100e15780820151818401526020810190506100c6565b50505050905090810190601f16801561010e5780820380516001836020036101000a031916815260200191505b50858103845288818151815260200191508051906020019080838360005b8381101561014757808201518184015260208101905061012c565b50505050905090810190601f1680156101745780820380516001836020036101000a031916815260200191505b50858103835287818151815260200191508051906020019080838360005b838110156101ad578082015181840152602081019050610192565b50505050905090810190601f1680156101da5780820380516001836020036101000a031916815260200191505b50858103825286818151815260200191508051906020019080838360005b838110156102135780820151818401526020810190506101f8565b50505050905090810190601f1680156102405780820380516001836020036101000a031916815260200191505b509850505050505050505060405180910390f35b34801561026057600080fd5b506104e9600480360360a081101561027757600080fd5b81019080803590602001909291908035906020019064010000000081111561029e57600080fd5b8201836020820111156102b057600080fd5b803590602001918460018302840111640100000000831117156102d257600080fd5b91908080601f016020809104026020016040519081016040528093929190818152602001838380828437600081840152601f19601f8201169050808301925050505050505091929192908035906020019064010000000081111561033557600080fd5b82018360208201111561034757600080fd5b8035906020019184600183028401116401000000008311171561036957600080fd5b91908080601f016020809104026020016040519081016040528093929190818152602001838380828437600081840152601f19601f820116905080830192505050505050509192919290803590602001906401000000008111156103cc57600080fd5b8201836020820111156103de57600080fd5b8035906020019184600183028401116401000000008311171561040057600080fd5b91908080601f016020809104026020016040519081016040528093929190818152602001838380828437600081840152601f19601f8201169050808301925050505050505091929192908035906020019064010000000081111561046357600080fd5b82018360208201111561047557600080fd5b8035906020019184600183028401116401000000008311171561049757600080fd5b91908080601f016020809104026020016040519081016040528093929190818152602001838380828437600081840152601f19601f820116905080830192505050505050509192919290505050610878565b005b3480156104f757600080fd5b506105246004803603602081101561050e57600080fd5b810190808035906020019092919050505061092a565b6040518080602001828103825283818151815260200191508051906020019080838360005b83811015610564578082015181840152602081019050610549565b50505050905090810190601f1680156105915780820380516001836020036101000a031916815260200191505b509250505060405180910390f35b606080606080600080868152602001908152602001600020600001600080878152602001908152602001600020600101600080888152602001908152602001600020600201600080898152602001908152602001600020600301838054600181600116156101000203166002900480601f01602080910402602001604051908101604052809291908181526020018280546001816001161561010002031660029004801561068e5780601f106106635761010080835404028352916020019161068e565b820191906000526020600020905b81548152906001019060200180831161067157829003601f168201915b50505050509350828054600181600116156101000203166002900480601f01602080910402602001604051908101604052809291908181526020018280546001816001161561010002031660029004801561072a5780601f106106ff5761010080835404028352916020019161072a565b820191906000526020600020905b81548152906001019060200180831161070d57829003601f168201915b50505050509250818054600181600116156101000203166002900480601f0160208091040260200160405190810160405280929190818152602001828054600181600116156101000203166002900480156107c65780601f1061079b576101008083540402835291602001916107c6565b820191906000526020600020905b8154815290600101906020018083116107a957829003601f168201915b50505050509150808054600181600116156101000203166002900480601f0160208091040260200160405190810160405280929190818152602001828054600181600116156101000203166002900480156108625780601f1061083757610100808354040283529160200191610862565b820191906000526020600020905b81548152906001019060200180831161084557829003601f168201915b5050505050905093509350935093509193509193565b6080604051908101604052808581526020018481526020018381526020018281525060008087815260200190815260200160002060008201518160000190805190602001906108c89291906109e1565b5060208201518160010190805190602001906108e59291906109e1565b5060408201518160020190805190602001906109029291906109e1565b50606082015181600301908051906020019061091f9291906109e1565b509050505050505050565b60606000808381526020019081526020016000206000018054600181600116156101000203166002900480601f0160208091040260200160405190810160405280929190818152602001828054600181600116156101000203166002900480156109d55780601f106109aa576101008083540402835291602001916109d5565b820191906000526020600020905b8154815290600101906020018083116109b857829003601f168201915b50505050509050919050565b828054600181600116156101000203166002900490600052602060002090601f016020900481019282601f10610a2257805160ff1916838001178555610a50565b82800160010185558215610a50579182015b82811115610a4f578251825591602001919060010190610a34565b5b509050610a5d9190610a61565b5090565b610a8391905b80821115610a7f576000816000905550600101610a67565b5090565b9056fea165627a7a72305820907c716436a964bfefdf437ca34a7aae5e24424c7346f4aa3d9ed6ea919208b10029",
  "source": "pragma solidity >=0.4.0 <0.7.0;\n\ncontract SimpleStorage {\n    \n    struct AttendanceCert   {\n        string attendeeName;\n        string conferenceName;\n        string conferenceDetails;\n        string issuedBy;\n    }\n\n    mapping(uint => AttendanceCert) attendees;\n\n    function issueCert(uint phone, string memory _name, string memory _conf, string memory _details, string memory _issuedBy) public {\n        attendees[phone] = AttendanceCert(_name, _conf, _details, _issuedBy);\n    }\n    \n    function verifyCert(uint _phone) public view returns(string memory name, string memory conf, string memory details, string memory issuedBy) {\n        return (attendees[_phone].attendeeName, attendees[_phone].conferenceName,attendees[_phone].conferenceDetails,attendees[_phone].issuedBy);\n    }\n    function getAttendeeName(uint _phone) public view returns(string memory name) {\n      return attendees[_phone].attendeeName;\n    }\n}\n",
  "sourcePath": "/Users/prabhueshwarla/ethereum/teach/OSI2019-Blockchain/contracts/SimpleStorage.sol",
  "compiler": {
    "name": "solc",
    "version": "0.5.0+commit.1d4f565a.Emscripten.clang"
  },
  "schemaVersion": "3.0.9",
  "updatedAt": "2019-10-17T04:45:41.143Z",
  "devdoc": {
    "methods": {}
  },
  "userdoc": {
    "methods": {}
  }
}